:100000000C9483000C94B4000C94B4000C94B400D1
:100010000C94B4000C94B4000C94B4000C94B40090
:100020000C94B4000C94B4000C94B4000C94B40080
:100030000C94B4000C94B4000C94B4000C94B40070
:100040000C94B4000C94B4000C94B4000C94B40060
:100050000C94B4000C94B4000C94B4000C946F0293
:100060000C94B4000C9439020C940F020C94B4005C
:100070000C94B4000C94B4000C94B4000C94B40030
:100080000C94B4000C94B4000C94B4000C94B40020
:100090000C94B4000C94B4000C94B4000C94B40010
:1000A0000C94B4000C94B4000C94B4000C94B40000
:1000B0000C94B4000C94B4000C94B4000C94B400F0
:1000C0000C94B4000C94B4000C94B4000C94B400E0
:1000D0000C94B4000C94B4000C94B4000C94B400D0
:1000E0000C94B4000C94E3000C944C010C94990112
:1000F0000C94B6000C9406010C94F2000C941401BC
:100100000C940104010411241FBECFEFD1E2DEBF25
:10011000CDBF00E00CBF12E0A0E0B2E0E4EBF8E0FD
:1001200000E00BBF02C007900D92A631B107D9F7CE
:1001300022E0A6E1B2E001C01D92AC3BB207E1F7BC
:1001400010E0C3E8D0E000E006C021970109802F4D
:10015000FE010E945004C238D10780E00807A9F7C9
:100160000E94B9020C9458040C940000AF92BF9204
:10017000CF92DF92EF92FF920F931F93CF93DF9373
:100180006C017B018B01040F151FEB015E01AE18A2
:10019000BF08C017D10759F06991D601ED91FC91C4
:1001A0000190F081E02DC6011995892B79F7C501E1
:1001B000DF91CF911F910F91FF90EF90DF90CF9043
:1001C000BF90AF900895FC01538D448D252F30E0F2
:1001D000842F90E0821B930B541710F0CF96089554
:1001E00001970895FC01918D828D981761F0A28D81
:1001F000AE0FBF2FB11D5D968C91928D9F5F9F7347
:10020000928F90E008958FEF9FEF0895FC01918DFC
:10021000828D981731F0828DE80FF11D858D90E069
:1002200008958FEF9FEF0895FC01918D228D892F06
:1002300090E0805C9F4F821B91098F7399270895EE
:100240008FE192E00E94140121E0892B09F420E063
:10025000822F0895FC01A48DA80FB92FB11DA35AB8
:10026000BF4F2C91848D90E001968F739927848FD6
:10027000A689B7892C93A089B1898C9183708064F9
:100280008C93938D848D981306C00288F389E02D9A
:1002900080818F7D80830895EF92FF920F931F934B
:1002A000CF93DF93EC0181E0888F9B8D8C8D981329
:1002B0001AC0E889F989808185FF15C09FB7F89435
:1002C000EE89FF896083E889F98980818370806481
:1002D00080839FBF81E090E0DF91CF911F910F91CC
:1002E000FF90EF900895F62E0B8D10E00F5F1F4FDB
:1002F0000F731127E02E8C8D8E110CC00FB607FCEA
:10030000FACFE889F989808185FFF5CFCE010E9477
:100310002A01F1CFEB8DEC0FFD2FF11DE35AFF4FBA
:10032000F0829FB7F8940B8FEA89FB898081806205
:10033000CFCFCF93DF93EC01888D8823B9F0AA89C2
:10034000BB89E889F9898C9185FD03C0808186FD90
:100350000DC00FB607FCF7CF8C9185FFF2CF8081DF
:1003600085FFEDCFCE010E942A01E9CFDF91CF9129
:10037000089580E090E0892B29F00E9420018111EE
:100380000E94000080E090E0892B49F080E090E03E
:10039000892B29F00E94000081110E94000080E05A
:1003A00090E0892B49F080E090E0892B29F00E94B1
:1003B000000081110E94000080E090E0892B49F04C
:1003C00080E090E0892B29F00E94000081110C94BC
:1003D000000008953FB7F89480911B0290911C0291
:1003E000A0911D02B0911E0226B5A89B05C02F3F0B
:1003F00019F00196A11DB11D3FBFBA2FA92F982F4B
:100400008827BC01CD01620F711D811D911D42E045
:10041000660F771F881F991F4A95D1F708951F927D
:100420000F920FB60F9211240BB60F922F933F939A
:100430004F935F936F937F938F939F93AF93BF93EC
:10044000EF93FF938FE192E00E942A01FF91EF91D9
:10045000BF91AF919F918F917F916F915F914F91DC
:100460003F912F910F900BBE0F900FBE0F901F90DA
:1004700018951F920F920FB60F9211240BB60F9280
:100480002F938F939F93EF93FF93E0912F02F0911F
:1004900030028081E0913502F091360282FD1DC06C
:1004A0009081809138028F5F8F732091390282177B
:1004B00041F0E0913802F0E0E15EFD4F958F8093CE
:1004C0003802FF91EF919F918F912F910F900BBE6A
:1004D0000F900FBE0F901F9018958081F2CF1F9242
:1004E0000F920FB60F9211242F933F938F939F93E8
:1004F000AF93BF938091170290911802A0911902B7
:10050000B0911A023091160223E0230F2D3758F5CF
:100510000196A11DB11D209316028093170290939E
:100520001802A0931902B0931A0280911B029091B5
:100530001C02A0911D02B0911E020196A11DB11DC9
:1005400080931B0290931C02A0931D02B0931E0285
:10055000BF91AF919F918F913F912F910F900FBEBF
:100560000F901F90189526E8230F0296A11DB11D2C
:10057000D2CFCF93DF93CDB7DEB7A1970FB6F89464
:10058000DEBF0FBECDBF789484B5826084BD84B5D4
:10059000816084BD85B5826085BD85B5816085BD7E
:1005A00080916E00816080936E0010928100809136
:1005B00081008260809381008091810081608093BE
:1005C0008100809180008160809380008091B100E3
:1005D00084608093B1008091B00081608093B0000E
:1005E0008091910082608093910080919100816060
:1005F0008093910080919000816080939000809121
:10060000A10082608093A1008091A100816080930D
:10061000A1008091A00081608093A00080912101C1
:10062000826080932101809121018160809321016A
:100630008091200181608093200180917A00846004
:1006400080937A0080917A00826080937A00809112
:100650007A00816080937A0080917A00806880932C
:100660007A001092C100E0912F02F091300282E0F6
:100670008083E0912B02F0912C021082E0912D02F8
:10068000F0912E028FEC808310923702E0913302BA
:10069000F091340286E08083E0913102F0913202E1
:1006A000808180618083E0913102F091320280810B
:1006B00088608083E0913102F0913202808180680D
:1006C0008083E0913102F091320280818F7D8083BE
:1006D00091E4392E2AE0C22ED12CE12CF12C80910C
:1006E0007B00877F80937B0030927C0080917A0032
:1006F000806480937A0080917A0086FDFCCF90918F
:100700007800809179008927982789272C01092E64
:10071000000C6608770897FF5EC06DE28FE192E0FB
:100720000E944C0122273327A901241935094609C3
:10073000570919A28E010F5D1F4FCA01B901A70108
:1007400096010E942E04605DF80162938F012115CD
:1007500031054105510589F70115110561F0019039
:100760000020E9F73197AF01401B510BB8018FE131
:1007700092E00E94B60042E050E062E172E08FE158
:1007800092E00E94B6000E94EA014B015C0184EFF6
:10079000482E55245394612C712C0E94EA0168194B
:1007A00079098A099B09683E734081059105A8F380
:1007B000F1E04F1A51086108710828EE820E23E01B
:1007C000921EA11CB11C411451046104710429F74B
:1007D0000E94B90184CFA301920119A28E010F5D7D
:1007E0001F4FCA01B901A70196010E942E04605D46
:1007F000F80162938F01211531054105510589F7F3
:10080000ABCFEFE1F2E01382128288EE93E0A0E03A
:10081000B0E084839583A683B78384E092E09183DC
:10082000808385EC90E09587848784EC90E09787BF
:10083000868780EC90E0918B808B81EC90E0938BAD
:10084000828B82EC90E0958B848B86EC90E0978B8A
:10085000868B118E128E138E148E0895A1E21A2E9D
:10086000AA1BBB1BFD010DC0AA1FBB1FEE1FFF1F54
:10087000A217B307E407F50720F0A21BB30BE40BA4
:10088000F50B661F771F881F991F1A9469F76095EB
:100890007095809590959B01AC01BD01CF010895A5
:1008A000EE0FFF1F881F8BBF0790F691E02D199464
:0408B000F894FFCFEA
:1008B400000000004C01B600E30099011401F200AD
:0608C40006010D0A000010
:00000001FF
