:100000000C9472000C9486000C9486000C9486006C
:100010000C9486000C94F7000C9486000C948600D7
:100020000C9486000C9486000C9486000C94860038
:100030000C9486000C9486000C9486000C94860028
:100040000C9486000C9486000C9486000C94860018
:100050000C9486000C9486000C9486000C94AD00E1
:100060000C9486000C9486000C9486000C948600F8
:100070000C9486000C9486000C9486000C948600E8
:100080000C9486000C9486000C9486000C948600D8
:100090000C9486000C9486000C9486000C948600C8
:1000A0000C9486000C9486000C9486000C948600B8
:1000B0000C9486000C9486000C9486000C948600A8
:1000C0000C9486000C9486000C9486000C94860098
:1000D0000C9486000C9486000C9486000C94860088
:1000E0000C94860011241FBECFEFD1E2DEBFCDBF3E
:1000F00000E00CBF22E0A0E0B2E001C01D92A930F8
:10010000B207E1F70E9406010C94B2010C940000C2
:100110003FB7F8948091050290910602A0910702E2
:10012000B091080226B5A89B05C02F3F19F0019693
:10013000A11DB11D3FBFBA2FA92F982F8827BC0141
:10014000CD01620F711D811D911D42E0660F771F69
:10015000881F991F4A95D1F708951F920F920FB6E5
:100160000F9211242F933F938F939F93AF93BF933D
:100170008091010290910202A0910302B0910402C9
:100180003091000223E0230F2D3758F50196A11D71
:10019000B11D209300028093010290930202A0936C
:1001A0000302B09304028091050290910602A0918F
:1001B0000702B09108020196A11DB11D80930502AE
:1001C00090930602A0930702B0930802BF91AF91EB
:1001D0009F918F913F912F910F900FBE0F901F9085
:1001E000189526E8230F0296A11DB11DD2CF1F92AC
:1001F0000F920FB60F921124649B06C02F9A0F9096
:100200000FBE0F901F9018952F98F9CF789484B552
:10021000826084BD84B5816084BD85B5826085BD02
:1002200085B5816085BD80916E00816080936E0090
:100230001092810080918100826080938100809182
:100240008100816080938100809180008160809333
:1002500080008091B10084608093B1008091B000F3
:1002600081608093B00080919100826080939100C2
:1002700080919100816080939100809190008160D5
:10028000809390008091A10082608093A100809172
:10029000A10081608093A1008091A0008160809383
:1002A000A000809121018260809321018091210131
:1002B00081608093210180912001816080932001E1
:1002C00080917A00846080937A0080917A008260C5
:1002D00080937A0080917A00816080937A00809187
:1002E0007A00806880937A001092C10084B18FEF09
:1002F00084B98DB18DB9749AEC9A80916A0081604D
:1003000080936A00789410E4C0E0D0E00E948800F6
:100310004B015C0184E6C82ED12CE12CF12C0E940B
:100320008800681979098A099B09683E734081052C
:100330009105A8F321E0C21AD108E108F10888EE7E
:10034000880E83E0981EA11CB11CC114D104E104E5
:10035000F10429F785B1812785B92097B9F20E9468
:080360000000D4CFF894FFCF98
:00000001FF
