:100000000C9483000C94B4000C94B4000C94B400D1
:100010000C94B4000C94C6020C94B4000C94B4007C
:100020000C94B4000C94B4000C94B4000C94B40080
:100030000C94B4000C94B4000C94B4000C94B40070
:100040000C94B4000C94B4000C94B4000C94B40060
:100050000C94B4000C94B4000C94B4000C947C0286
:100060000C94B4000C9446020C941C020C94B40042
:100070000C94B4000C94B4000C94B4000C94B40030
:100080000C94B4000C94B4000C94B4000C94B40020
:100090000C94B4000C94B4000C94B4000C94B40010
:1000A0000C94B4000C94B4000C94B4000C94B40000
:1000B0000C94B4000C94B4000C94B4000C94B400F0
:1000C0000C94B4000C94B4000C94B4000C94B400E0
:1000D0000C94B4000C94B4000C94B4000C94B400D0
:1000E0000C94B4000C94B6000C94F2000C9414011F
:1000F0000C944C010C9406010C94EE030C949901A1
:100100000C94E300EE0311241FBECFEFD1E2DEBF5B
:10011000CDBF00E00CBF12E0A0E0B2E0EAE4F8E0FE
:1001200000E00BBF02C007900D92AA32B107D9F7C9
:1001300022E0AAE2B2E001C01D92A03DB207E1F7C1
:1001400010E0C3E8D0E000E006C021970109802F4D
:10015000FE010E941B04C238D10780E00807A9F7FE
:100160000E9411030C9423040C940000AF92BF92E0
:10017000CF92DF92EF92FF920F931F93CF93DF9373
:100180006C017B018B01040F151FEB015E01AE18A2
:10019000BF08C017D10759F06991D601ED91FC91C4
:1001A0000190F081E02DC6011995892B79F7C501E1
:1001B000DF91CF911F910F91FF90EF90DF90CF9043
:1001C000BF90AF900895FC01538D448D252F30E0F2
:1001D000842F90E0821B930B541710F0CF96089554
:1001E00001970895FC01918D828D981761F0A28D81
:1001F000AE0FBF2FB11D5D968C91928D9F5F9F7347
:10020000928F90E008958FEF9FEF0895FC01918DFC
:10021000828D981731F0828DE80FF11D858D90E069
:1002200008958FEF9FEF0895FC01918D228D892F06
:1002300090E0805C9F4F821B91098F7399270895EE
:1002400083E392E00E94140121E0892B09F420E06D
:10025000822F0895FC01A48DA80FB92FB11DA35AB8
:10026000BF4F2C91848D90E001968F739927848FD6
:10027000A689B7892C93A089B1898C9183708064F9
:100280008C93938D848D981306C00288F389E02D9A
:1002900080818F7D80830895EF92FF920F931F934B
:1002A000CF93DF93EC0181E0888F9B8D8C8D981329
:1002B0001AC0E889F989808185FF15C09FB7F89435
:1002C000EE89FF896083E889F98980818370806481
:1002D00080839FBF81E090E0DF91CF911F910F91CC
:1002E000FF90EF900895F62E0B8D10E00F5F1F4FDB
:1002F0000F731127E02E8C8D8E110CC00FB607FCEA
:10030000FACFE889F989808185FFF5CFCE010E9477
:100310002A01F1CFEB8DEC0FFD2FF11DE35AFF4FBA
:10032000F0829FB7F8940B8FEA89FB898081806205
:10033000CFCFCF93DF93EC01888D8823B9F0AA89C2
:10034000BB89E889F9898C9185FD03C0808186FD90
:100350000DC00FB607FCF7CF8C9185FFF2CF8081DF
:1003600085FFEDCFCE010E942A01E9CFDF91CF9129
:10037000089580E090E0892B29F00E9420018111EE
:100380000E94000080E090E0892B49F080E090E03E
:10039000892B29F00E94000081110E94000080E05A
:1003A00090E0892B49F080E090E0892B29F00E94B1
:1003B000000081110E94000080E090E0892B49F04C
:1003C00080E090E0892B29F00E94000081110C94BC
:1003D000000008953FB7F89480912F029091300269
:1003E000A0913102B091320226B5A89B05C02F3FE3
:1003F00019F00196A11DB11D3FBFBA2FA92F982F4B
:100400008827BC01CD01620F711D811D911D42E045
:10041000660F771F881F991F4A95D1F70895FC0131
:1004200001900020E9F73197AF01481B590BBC013F
:1004300083E392E00C94B6001F920F920FB60F92D6
:1004400011240BB60F922F933F934F935F936F93AB
:100450007F938F939F93AF93BF93EF93FF9383E328
:1004600092E00E942A01FF91EF91BF91AF919F917D
:100470008F917F916F915F914F913F912F910F904D
:100480000BBE0F900FBE0F901F9018951F920F92EA
:100490000FB60F9211240BB60F922F938F939F9349
:1004A000EF93FF93E0914302F09144028081E09149
:1004B0004902F0914A0282FD1DC0908180914C0258
:1004C0008F5F8F7320914D02821741F0E0914C02B3
:1004D000F0E0ED5CFD4F958F80934C02FF91EF9122
:1004E0009F918F912F910F900BBE0F900FBE0F9089
:1004F0001F9018958081F2CF1F920F920FB60F9226
:1005000011242F933F938F939F93AF93BF93809129
:100510002B0290912C02A0912D02B0912E023091CD
:100520002A0223E0230F2D3758F50196A11DB11D96
:1005300020932A0280932B0290932C02A0932D02E9
:10054000B0932E0280912F0290913002A09131023F
:10055000B09132020196A11DB11D80932F0290939C
:100560003002A0933102B0933202BF91AF919F91BC
:100570008F913F912F910F900FBE0F901F90189564
:1005800026E8230F0296A11DB11DD2CF1F920F9214
:100590000FB60F9211240BB60F922F933F934F93E8
:1005A0005F936F937F938F939F93AF93BF93EF93DB
:1005B000FF93649B30C02F9A2FEF89E698E121507A
:1005C00080409040E1F700C0000082E192E00E948C
:1005D0000F0285E292E00E940F0285B115B82FEF5D
:1005E00089E698E1215080409040E1F700C000008A
:1005F000FF91EF91BF91AF919F918F917F916F91FB
:100600005F914F913F912F910F900BBE0F900FBEB6
:100610000F901F9018952F9888E292E00E940F0289
:10062000E7CF789484B5826084BD84B5816084BD51
:1006300085B5826085BD85B5816085BD80916E0080
:10064000816080936E0010928100809181008260B1
:1006500080938100809181008160809381008091EE
:1006600080008160809380008091B10084608093DD
:10067000B1008091B00081608093B00080919100C2
:1006800082608093910080919100816080939100BD
:10069000809190008160809390008091A1008260A1
:1006A0008093A1008091A10081608093A10080913E
:1006B000A00081608093A0008091210182608093DE
:1006C000210180912101816080932101809120018D
:1006D00081608093200180917A00846080937A0009
:1006E00080917A00826080937A0080917A008160A4
:1006F00080937A0080917A00806880937A001092CB
:10070000C100E0914302F091440282E08083E091D5
:100710003F02F09140021082E0914102F0914202CA
:100720008FEC808310924B02E0914702F0914802D7
:1007300086E08083E0914502F091460280818061ED
:100740008083E0914502F091460280818860808339
:10075000E0914502F0914602808180688083E091BB
:100760004502F091460280818F7D808384B18FEFB6
:1007700084B98DB18DB9EC9A80916A0081608093C3
:100780006A007894C0E40E94EA014B015C0188EEA3
:10079000C82E83E0D82EE12CF12C0E94EA016819C2
:1007A00079098A099B09683E734081059105A8F380
:1007B00021E0C21AD108E108F10888EE880E83E032
:1007C000981EA11CB11CC114D104E104F10429F745
:1007D00085B18C2785B90E94B901D5CFE3E3F2E05A
:1007E0001382128288EE93E0A0E0B0E084839583C8
:1007F000A683B78384E092E09183808385EC90E0C8
:100800009587848784EC90E09787868780EC90E0DA
:10081000918B808B81EC90E0938B828B82EC90E0CB
:10082000958B848B86EC90E0978B868B118E128E45
:10083000138E148E0895EE0FFF1F881F8BBF079035
:0A084000F691E02D1994F894FFCF13
:10084A00000000004C01B600E30099011401F20017
:10085A000601616D20696E2074686520696E747284
:0A086A0072657074000D0A00300082
:00000001FF
