:100000000C9472000C9486000C9486000C9486006C
:100010000C9486000C942D010C9486000C948600A0
:100020000C9486000C9486000C9486000C94860038
:100030000C9486000C9486000C9486000C94860028
:100040000C9486000C9486000C9486000C94860018
:100050000C9486000C9486000C9486000C94E300AB
:100060000C9486000C9486000C9486000C948600F8
:100070000C9486000C9486000C9486000C948600E8
:100080000C9486000C9486000C9486000C948600D8
:100090000C9486000C9486000C9486000C948600C8
:1000A0000C9486000C9486000C9486000C948600B8
:1000B0000C9486000C9486000C9486000C948600A8
:1000C0000C9486000C9486000C9486000C94860098
:1000D0000C9486000C9486000C9486000C94860088
:1000E0000C94860011241FBECFEFD1E2DEBFCDBF3E
:1000F00000E00CBF22E0A0E0B2E001C01D92A930F8
:10010000B207E1F70E945A010C94E4010C9400003C
:100110003FB7F8948091050290910602A0910702E2
:10012000B091080226B5A89B05C02F3F19F0019693
:10013000A11DB11D3FBFBA2FA92F982F8827BC0141
:10014000CD01620F711D811D911D42E0660F771F69
:10015000881F991F4A95D1F708958F929F92AF9269
:10016000BF92CF92DF92EF92FF920E9488004B01E4
:100170005C0188EEC82E83E0D82EE12CF12C0E9481
:100180008800681979098A099B09683E73408105CE
:100190009105A8F321E0C21AD108E108F10888EE20
:1001A000880E83E0981EA11CB11CC114D104E10487
:1001B000F10429F7FF90EF90DF90CF90BF90AF90C0
:1001C0009F908F9008951F920F920FB60F92112457
:1001D0002F933F938F939F93AF93BF93809101028F
:1001E00090910202A0910302B091040230910002AA
:1001F00023E0230F2D3758F50196A11DB11D209343
:1002000000028093010290930202A0930302B09334
:1002100004028091050290910602A0910702B0911C
:1002200008020196A11DB11D80930502909306025C
:10023000A0930702B0930802BF91AF919F918F9155
:100240003F912F910F900FBE0F901F90189526E8A9
:10025000230F0296A11DB11DD2CF1F920F920FB690
:100260000F9211240BB60F922F933F934F935F93EE
:100270006F937F938F939F93AF93BF93EF93FF936E
:10028000649B16C02F9A0E94AD00FF91EF91BF9121
:10029000AF919F918F917F916F915F914F913F911E
:1002A0002F910F900BBE0F900FBE0F901F901895BF
:1002B0002F98EBCF789484B5826084BD84B581603B
:1002C00084BD85B5826085BD85B5816085BD809121
:1002D0006E00816080936E00109281008091810099
:1002E0008260809381008091810081608093810091
:1002F000809180008160809380008091B100846053
:100300008093B1008091B00081608093B0008091B3
:100310009100826080939100809191008160809330
:100320009100809190008160809390008091A10065
:1003300082608093A1008091A10081608093A100E0
:100340008091A00081608093A00080912101826053
:10035000809321018091210181608093210180910E
:10036000200181608093200180917A0084608093D5
:100370007A0080917A00826080937A0080917A007E
:10038000816080937A0080917A00806880937A00FF
:100390001092C10084B18FEF84B98DB18DB9EC9A00
:1003A00080916A00816080936A007894C0E400E0E4
:1003B00010E00E94AD0085B18C2785B901151105AB
:0C03C000C1F30E940000F5CFF894FFCFBD
:00000001FF
